{
  "contractName": "NFTMinter",
  "abi": [
    {
      "inputs": [],
      "stateMutability": "nonpayable",
      "type": "constructor"
    },
    {
      "inputs": [
        {
          "internalType": "address",
          "name": "sender",
          "type": "address"
        },
        {
          "internalType": "uint256",
          "name": "tokenId",
          "type": "uint256"
        },
        {
          "internalType": "address",
          "name": "owner",
          "type": "address"
        }
      ],
      "name": "ERC721IncorrectOwner",
      "type": "error"
    },
    {
      "inputs": [
        {
          "internalType": "address",
          "name": "operator",
          "type": "address"
        },
        {
          "internalType": "uint256",
          "name": "tokenId",
          "type": "uint256"
        }
      ],
      "name": "ERC721InsufficientApproval",
      "type": "error"
    },
    {
      "inputs": [
        {
          "internalType": "address",
          "name": "approver",
          "type": "address"
        }
      ],
      "name": "ERC721InvalidApprover",
      "type": "error"
    },
    {
      "inputs": [
        {
          "internalType": "address",
          "name": "operator",
          "type": "address"
        }
      ],
      "name": "ERC721InvalidOperator",
      "type": "error"
    },
    {
      "inputs": [
        {
          "internalType": "address",
          "name": "owner",
          "type": "address"
        }
      ],
      "name": "ERC721InvalidOwner",
      "type": "error"
    },
    {
      "inputs": [
        {
          "internalType": "address",
          "name": "receiver",
          "type": "address"
        }
      ],
      "name": "ERC721InvalidReceiver",
      "type": "error"
    },
    {
      "inputs": [
        {
          "internalType": "address",
          "name": "sender",
          "type": "address"
        }
      ],
      "name": "ERC721InvalidSender",
      "type": "error"
    },
    {
      "inputs": [
        {
          "internalType": "uint256",
          "name": "tokenId",
          "type": "uint256"
        }
      ],
      "name": "ERC721NonexistentToken",
      "type": "error"
    },
    {
      "inputs": [
        {
          "internalType": "address",
          "name": "owner",
          "type": "address"
        }
      ],
      "name": "OwnableInvalidOwner",
      "type": "error"
    },
    {
      "inputs": [
        {
          "internalType": "address",
          "name": "account",
          "type": "address"
        }
      ],
      "name": "OwnableUnauthorizedAccount",
      "type": "error"
    },
    {
      "anonymous": false,
      "inputs": [
        {
          "indexed": true,
          "internalType": "address",
          "name": "owner",
          "type": "address"
        },
        {
          "indexed": true,
          "internalType": "address",
          "name": "approved",
          "type": "address"
        },
        {
          "indexed": true,
          "internalType": "uint256",
          "name": "tokenId",
          "type": "uint256"
        }
      ],
      "name": "Approval",
      "type": "event"
    },
    {
      "anonymous": false,
      "inputs": [
        {
          "indexed": true,
          "internalType": "address",
          "name": "owner",
          "type": "address"
        },
        {
          "indexed": true,
          "internalType": "address",
          "name": "operator",
          "type": "address"
        },
        {
          "indexed": false,
          "internalType": "bool",
          "name": "approved",
          "type": "bool"
        }
      ],
      "name": "ApprovalForAll",
      "type": "event"
    },
    {
      "anonymous": false,
      "inputs": [
        {
          "indexed": false,
          "internalType": "uint256",
          "name": "_fromTokenId",
          "type": "uint256"
        },
        {
          "indexed": false,
          "internalType": "uint256",
          "name": "_toTokenId",
          "type": "uint256"
        }
      ],
      "name": "BatchMetadataUpdate",
      "type": "event"
    },
    {
      "anonymous": false,
      "inputs": [
        {
          "indexed": false,
          "internalType": "uint256",
          "name": "_tokenId",
          "type": "uint256"
        }
      ],
      "name": "MetadataUpdate",
      "type": "event"
    },
    {
      "anonymous": false,
      "inputs": [
        {
          "indexed": true,
          "internalType": "address",
          "name": "previousOwner",
          "type": "address"
        },
        {
          "indexed": true,
          "internalType": "address",
          "name": "newOwner",
          "type": "address"
        }
      ],
      "name": "OwnershipTransferred",
      "type": "event"
    },
    {
      "anonymous": false,
      "inputs": [
        {
          "indexed": true,
          "internalType": "address",
          "name": "from",
          "type": "address"
        },
        {
          "indexed": true,
          "internalType": "address",
          "name": "to",
          "type": "address"
        },
        {
          "indexed": true,
          "internalType": "uint256",
          "name": "tokenId",
          "type": "uint256"
        }
      ],
      "name": "Transfer",
      "type": "event"
    },
    {
      "inputs": [
        {
          "internalType": "address",
          "name": "to",
          "type": "address"
        },
        {
          "internalType": "uint256",
          "name": "tokenId",
          "type": "uint256"
        }
      ],
      "name": "approve",
      "outputs": [],
      "stateMutability": "nonpayable",
      "type": "function"
    },
    {
      "inputs": [
        {
          "internalType": "address",
          "name": "owner",
          "type": "address"
        }
      ],
      "name": "balanceOf",
      "outputs": [
        {
          "internalType": "uint256",
          "name": "",
          "type": "uint256"
        }
      ],
      "stateMutability": "view",
      "type": "function"
    },
    {
      "inputs": [
        {
          "internalType": "uint256",
          "name": "tokenId",
          "type": "uint256"
        }
      ],
      "name": "getApproved",
      "outputs": [
        {
          "internalType": "address",
          "name": "",
          "type": "address"
        }
      ],
      "stateMutability": "view",
      "type": "function"
    },
    {
      "inputs": [
        {
          "internalType": "address",
          "name": "owner",
          "type": "address"
        },
        {
          "internalType": "address",
          "name": "operator",
          "type": "address"
        }
      ],
      "name": "isApprovedForAll",
      "outputs": [
        {
          "internalType": "bool",
          "name": "",
          "type": "bool"
        }
      ],
      "stateMutability": "view",
      "type": "function"
    },
    {
      "inputs": [],
      "name": "name",
      "outputs": [
        {
          "internalType": "string",
          "name": "",
          "type": "string"
        }
      ],
      "stateMutability": "view",
      "type": "function"
    },
    {
      "inputs": [],
      "name": "owner",
      "outputs": [
        {
          "internalType": "address",
          "name": "",
          "type": "address"
        }
      ],
      "stateMutability": "view",
      "type": "function"
    },
    {
      "inputs": [
        {
          "internalType": "uint256",
          "name": "tokenId",
          "type": "uint256"
        }
      ],
      "name": "ownerOf",
      "outputs": [
        {
          "internalType": "address",
          "name": "",
          "type": "address"
        }
      ],
      "stateMutability": "view",
      "type": "function"
    },
    {
      "inputs": [],
      "name": "renounceOwnership",
      "outputs": [],
      "stateMutability": "nonpayable",
      "type": "function"
    },
    {
      "inputs": [
        {
          "internalType": "address",
          "name": "from",
          "type": "address"
        },
        {
          "internalType": "address",
          "name": "to",
          "type": "address"
        },
        {
          "internalType": "uint256",
          "name": "tokenId",
          "type": "uint256"
        }
      ],
      "name": "safeTransferFrom",
      "outputs": [],
      "stateMutability": "nonpayable",
      "type": "function"
    },
    {
      "inputs": [
        {
          "internalType": "address",
          "name": "from",
          "type": "address"
        },
        {
          "internalType": "address",
          "name": "to",
          "type": "address"
        },
        {
          "internalType": "uint256",
          "name": "tokenId",
          "type": "uint256"
        },
        {
          "internalType": "bytes",
          "name": "data",
          "type": "bytes"
        }
      ],
      "name": "safeTransferFrom",
      "outputs": [],
      "stateMutability": "nonpayable",
      "type": "function"
    },
    {
      "inputs": [
        {
          "internalType": "address",
          "name": "operator",
          "type": "address"
        },
        {
          "internalType": "bool",
          "name": "approved",
          "type": "bool"
        }
      ],
      "name": "setApprovalForAll",
      "outputs": [],
      "stateMutability": "nonpayable",
      "type": "function"
    },
    {
      "inputs": [
        {
          "internalType": "bytes4",
          "name": "interfaceId",
          "type": "bytes4"
        }
      ],
      "name": "supportsInterface",
      "outputs": [
        {
          "internalType": "bool",
          "name": "",
          "type": "bool"
        }
      ],
      "stateMutability": "view",
      "type": "function"
    },
    {
      "inputs": [],
      "name": "symbol",
      "outputs": [
        {
          "internalType": "string",
          "name": "",
          "type": "string"
        }
      ],
      "stateMutability": "view",
      "type": "function"
    },
    {
      "inputs": [],
      "name": "tokenCounter",
      "outputs": [
        {
          "internalType": "uint256",
          "name": "",
          "type": "uint256"
        }
      ],
      "stateMutability": "view",
      "type": "function"
    },
    {
      "inputs": [
        {
          "internalType": "uint256",
          "name": "",
          "type": "uint256"
        }
      ],
      "name": "tokenTitles",
      "outputs": [
        {
          "internalType": "string",
          "name": "",
          "type": "string"
        }
      ],
      "stateMutability": "view",
      "type": "function"
    },
    {
      "inputs": [
        {
          "internalType": "uint256",
          "name": "tokenId",
          "type": "uint256"
        }
      ],
      "name": "tokenURI",
      "outputs": [
        {
          "internalType": "string",
          "name": "",
          "type": "string"
        }
      ],
      "stateMutability": "view",
      "type": "function"
    },
    {
      "inputs": [
        {
          "internalType": "address",
          "name": "from",
          "type": "address"
        },
        {
          "internalType": "address",
          "name": "to",
          "type": "address"
        },
        {
          "internalType": "uint256",
          "name": "tokenId",
          "type": "uint256"
        }
      ],
      "name": "transferFrom",
      "outputs": [],
      "stateMutability": "nonpayable",
      "type": "function"
    },
    {
      "inputs": [
        {
          "internalType": "address",
          "name": "newOwner",
          "type": "address"
        }
      ],
      "name": "transferOwnership",
      "outputs": [],
      "stateMutability": "nonpayable",
      "type": "function"
    },
    {
      "inputs": [
        {
          "internalType": "string",
          "name": "_tokenURI",
          "type": "string"
        },
        {
          "internalType": "string",
          "name": "_title",
          "type": "string"
        }
      ],
      "name": "mintNFT",
      "outputs": [],
      "stateMutability": "nonpayable",
      "type": "function"
    },
    {
      "inputs": [
        {
          "internalType": "uint256",
          "name": "tokenId",
          "type": "uint256"
        }
      ],
      "name": "getTokenTitle",
      "outputs": [
        {
          "internalType": "string",
          "name": "",
          "type": "string"
        }
      ],
      "stateMutability": "view",
      "type": "function"
    }
  ],
  "bytecode": "0x608060405234801562000010575f80fd5b50336040518060400160405280600981526020016827232a26b4b73a32b960b91b815250604051806040016040528060048152602001634e46544d60e01b815250815f9081620000619190620001a8565b506001620000708282620001a8565b5050506001600160a01b038116620000a157604051631e4fbdf760e01b81525f600482015260240160405180910390fd5b620000ac81620000b7565b505f60085562000270565b600780546001600160a01b038381166001600160a01b0319831681179093556040519116919082907f8be0079c531659141344cd1fd0a4f28419497f9722a3daafe3b4186f6b6457e0905f90a35050565b634e487b7160e01b5f52604160045260245ffd5b600181811c908216806200013157607f821691505b6020821081036200015057634e487b7160e01b5f52602260045260245ffd5b50919050565b601f821115620001a3575f81815260208120601f850160051c810160208610156200017e5750805b601f850160051c820191505b818110156200019f578281556001016200018a565b5050505b505050565b81516001600160401b03811115620001c457620001c462000108565b620001dc81620001d584546200011c565b8462000156565b602080601f83116001811462000212575f8415620001fa5750858301515b5f19600386901b1c1916600185901b1785556200019f565b5f85815260208120601f198616915b82811015620002425788860151825594840194600190910190840162000221565b50858210156200026057878501515f19600388901b60f8161c191681555b5050505050600190811b01905550565b611569806200027e5f395ff3fe608060405234801561000f575f80fd5b5060043610610127575f3560e01c80638da5cb5b116100a9578063d082e3811161006e578063d082e3811461026f578063d28169ab14610278578063e96055441461028b578063e985e9c51461029e578063f2fde38b146102b1575f80fd5b80638da5cb5b1461021d57806395d89b411461022e578063a22cb46514610236578063b88d4fde14610249578063c87b56dd1461025c575f80fd5b806342842e0e116100ef57806342842e0e146101bb578063484ae5bd146101ce5780636352211e146101e157806370a08231146101f4578063715018a614610215575f80fd5b806301ffc9a71461012b57806306fdde0314610153578063081812fc14610168578063095ea7b31461019357806323b872dd146101a8575b5f80fd5b61013e61013936600461104a565b6102c4565b60405190151581526020015b60405180910390f35b61015b6102ee565b60405161014a91906110b2565b61017b6101763660046110c4565b61037d565b6040516001600160a01b03909116815260200161014a565b6101a66101a13660046110f6565b6103a4565b005b6101a66101b636600461111e565b6103b3565b6101a66101c936600461111e565b610441565b61015b6101dc3660046110c4565b610460565b61017b6101ef3660046110c4565b6104f7565b610207610202366004611157565b610501565b60405190815260200161014a565b6101a6610546565b6007546001600160a01b031661017b565b61015b610559565b6101a6610244366004611170565b610568565b6101a6610257366004611230565b610573565b61015b61026a3660046110c4565b61058b565b61020760085481565b61015b6102863660046110c4565b610696565b6101a66102993660046112c5565b610735565b61013e6102ac366004611325565b610780565b6101a66102bf366004611157565b6107ad565b5f6001600160e01b03198216632483248360e11b14806102e857506102e8826107ea565b92915050565b60605f80546102fc90611356565b80601f016020809104026020016040519081016040528092919081815260200182805461032890611356565b80156103735780601f1061034a57610100808354040283529160200191610373565b820191905f5260205f20905b81548152906001019060200180831161035657829003601f168201915b5050505050905090565b5f61038782610839565b505f828152600460205260409020546001600160a01b03166102e8565b6103af828233610871565b5050565b6001600160a01b0382166103e157604051633250574960e11b81525f60048201526024015b60405180910390fd5b5f6103ed83833361087e565b9050836001600160a01b0316816001600160a01b03161461043b576040516364283d7b60e01b81526001600160a01b03808616600483015260248201849052821660448201526064016103d8565b50505050565b61045b83838360405180602001604052805f815250610573565b505050565b60096020525f90815260409020805461047890611356565b80601f01602080910402602001604051908101604052809291908181526020018280546104a490611356565b80156104ef5780601f106104c6576101008083540402835291602001916104ef565b820191905f5260205f20905b8154815290600101906020018083116104d257829003601f168201915b505050505081565b5f6102e882610839565b5f6001600160a01b03821661052b576040516322718ad960e21b81525f60048201526024016103d8565b506001600160a01b03165f9081526003602052604090205490565b61054e610970565b6105575f61099d565b565b6060600180546102fc90611356565b6103af3383836109ee565b61057e8484846103b3565b61043b3385858585610a8c565b606061059682610839565b505f82815260066020526040812080546105af90611356565b80601f01602080910402602001604051908101604052809291908181526020018280546105db90611356565b80156106265780601f106105fd57610100808354040283529160200191610626565b820191905f5260205f20905b81548152906001019060200180831161060957829003601f168201915b505050505090505f61064260408051602081019091525f815290565b905080515f03610653575092915050565b81511561068557808260405160200161066d92919061138e565b60405160208183030381529060405292505050919050565b61068e84610bb4565b949350505050565b5f8181526009602052604090208054606091906106b290611356565b80601f01602080910402602001604051908101604052809291908181526020018280546106de90611356565b80156107295780601f1061070057610100808354040283529160200191610729565b820191905f5260205f20905b81548152906001019060200180831161070c57829003601f168201915b50505050509050919050565b6008546107423382610c25565b61074c8184610c3e565b5f8181526009602052604090206107638382611401565b50600160085f82825461077691906114bd565b9091555050505050565b6001600160a01b039182165f90815260056020908152604080832093909416825291909152205460ff1690565b6107b5610970565b6001600160a01b0381166107de57604051631e4fbdf760e01b81525f60048201526024016103d8565b6107e78161099d565b50565b5f6001600160e01b031982166380ac58cd60e01b148061081a57506001600160e01b03198216635b5e139f60e01b145b806102e857506301ffc9a760e01b6001600160e01b03198316146102e8565b5f818152600260205260408120546001600160a01b0316806102e857604051637e27328960e01b8152600481018490526024016103d8565b61045b8383836001610c8d565b5f828152600260205260408120546001600160a01b03908116908316156108aa576108aa818486610d91565b6001600160a01b038116156108e4576108c55f855f80610c8d565b6001600160a01b0381165f90815260036020526040902080545f190190555b6001600160a01b03851615610912576001600160a01b0385165f908152600360205260409020805460010190555b5f8481526002602052604080822080546001600160a01b0319166001600160a01b0389811691821790925591518793918516917fddf252ad1be2c89b69c2b068fc378daa952ba7f163c4a11628f55a4df523b3ef91a4949350505050565b6007546001600160a01b031633146105575760405163118cdaa760e01b81523360048201526024016103d8565b600780546001600160a01b038381166001600160a01b0319831681179093556040519116919082907f8be0079c531659141344cd1fd0a4f28419497f9722a3daafe3b4186f6b6457e0905f90a35050565b6001600160a01b038216610a2057604051630b61174360e31b81526001600160a01b03831660048201526024016103d8565b6001600160a01b038381165f81815260056020908152604080832094871680845294825291829020805460ff191686151590811790915591519182527f17307eab39ab6107e8899845ad3d59bd9653f200f220920489ca2b5937696c31910160405180910390a3505050565b6001600160a01b0383163b15610bad57604051630a85bd0160e11b81526001600160a01b0384169063150b7a0290610ace9088908890879087906004016114dc565b6020604051808303815f875af1925050508015610b08575060408051601f3d908101601f19168201909252610b0591810190611518565b60015b610b6f573d808015610b35576040519150601f19603f3d011682016040523d82523d5f602084013e610b3a565b606091505b5080515f03610b6757604051633250574960e11b81526001600160a01b03851660048201526024016103d8565b805181602001fd5b6001600160e01b03198116630a85bd0160e11b14610bab57604051633250574960e11b81526001600160a01b03851660048201526024016103d8565b505b5050505050565b6060610bbf82610839565b505f610bd560408051602081019091525f815290565b90505f815111610bf35760405180602001604052805f815250610c1e565b80610bfd84610df5565b604051602001610c0e92919061138e565b6040516020818303038152906040525b9392505050565b6103af828260405180602001604052805f815250610e85565b5f828152600660205260409020610c558282611401565b506040518281527ff8e1a15aba9398e019f0b49df1a4fde98ee17ae345cb5f6b5e2c27f5033e8ce79060200160405180910390a15050565b8080610ca157506001600160a01b03821615155b15610d62575f610cb084610839565b90506001600160a01b03831615801590610cdc5750826001600160a01b0316816001600160a01b031614155b8015610cef5750610ced8184610780565b155b15610d185760405163a9fbf51f60e01b81526001600160a01b03841660048201526024016103d8565b8115610d605783856001600160a01b0316826001600160a01b03167f8c5be1e5ebec7d5bd14f71427d1e84f3dd0314c0f7b2291e5b200ac8c7c3b92560405160405180910390a45b505b50505f90815260046020526040902080546001600160a01b0319166001600160a01b0392909216919091179055565b610d9c838383610e9c565b61045b576001600160a01b038316610dca57604051637e27328960e01b8152600481018290526024016103d8565b60405163177e802f60e01b81526001600160a01b0383166004820152602481018290526044016103d8565b60605f610e0183610efd565b60010190505f8167ffffffffffffffff811115610e2057610e206111a9565b6040519080825280601f01601f191660200182016040528015610e4a576020820181803683370190505b5090508181016020015b5f19016f181899199a1a9b1b9c1cb0b131b232b360811b600a86061a8153600a8504945084610e5457509392505050565b610e8f8383610fd4565b61045b335f858585610a8c565b5f6001600160a01b0383161580159061068e5750826001600160a01b0316846001600160a01b03161480610ed55750610ed58484610780565b8061068e5750505f908152600460205260409020546001600160a01b03908116911614919050565b5f8072184f03e93ff9f4daa797ed6e38ed64bf6a1f0160401b8310610f3b5772184f03e93ff9f4daa797ed6e38ed64bf6a1f0160401b830492506040015b6d04ee2d6d415b85acef81000000008310610f67576d04ee2d6d415b85acef8100000000830492506020015b662386f26fc100008310610f8557662386f26fc10000830492506010015b6305f5e1008310610f9d576305f5e100830492506008015b6127108310610fb157612710830492506004015b60648310610fc3576064830492506002015b600a83106102e85760010192915050565b6001600160a01b038216610ffd57604051633250574960e11b81525f60048201526024016103d8565b5f61100983835f61087e565b90506001600160a01b0381161561045b576040516339e3563760e11b81525f60048201526024016103d8565b6001600160e01b0319811681146107e7575f80fd5b5f6020828403121561105a575f80fd5b8135610c1e81611035565b5f5b8381101561107f578181015183820152602001611067565b50505f910152565b5f815180845261109e816020860160208601611065565b601f01601f19169290920160200192915050565b602081525f610c1e6020830184611087565b5f602082840312156110d4575f80fd5b5035919050565b80356001600160a01b03811681146110f1575f80fd5b919050565b5f8060408385031215611107575f80fd5b611110836110db565b946020939093013593505050565b5f805f60608486031215611130575f80fd5b611139846110db565b9250611147602085016110db565b9150604084013590509250925092565b5f60208284031215611167575f80fd5b610c1e826110db565b5f8060408385031215611181575f80fd5b61118a836110db565b91506020830135801515811461119e575f80fd5b809150509250929050565b634e487b7160e01b5f52604160045260245ffd5b5f67ffffffffffffffff808411156111d7576111d76111a9565b604051601f8501601f19908116603f011681019082821181831017156111ff576111ff6111a9565b81604052809350858152868686011115611217575f80fd5b858560208301375f602087830101525050509392505050565b5f805f8060808587031215611243575f80fd5b61124c856110db565b935061125a602086016110db565b925060408501359150606085013567ffffffffffffffff81111561127c575f80fd5b8501601f8101871361128c575f80fd5b61129b878235602084016111bd565b91505092959194509250565b5f82601f8301126112b6575f80fd5b610c1e838335602085016111bd565b5f80604083850312156112d6575f80fd5b823567ffffffffffffffff808211156112ed575f80fd5b6112f9868387016112a7565b9350602085013591508082111561130e575f80fd5b5061131b858286016112a7565b9150509250929050565b5f8060408385031215611336575f80fd5b61133f836110db565b915061134d602084016110db565b90509250929050565b600181811c9082168061136a57607f821691505b60208210810361138857634e487b7160e01b5f52602260045260245ffd5b50919050565b5f835161139f818460208801611065565b8351908301906113b3818360208801611065565b01949350505050565b601f82111561045b575f81815260208120601f850160051c810160208610156113e25750805b601f850160051c820191505b81811015610bab578281556001016113ee565b815167ffffffffffffffff81111561141b5761141b6111a9565b61142f816114298454611356565b846113bc565b602080601f831160018114611462575f841561144b5750858301515b5f19600386901b1c1916600185901b178555610bab565b5f85815260208120601f198616915b8281101561149057888601518255948401946001909101908401611471565b50858210156114ad57878501515f19600388901b60f8161c191681555b5050505050600190811b01905550565b808201808211156102e857634e487b7160e01b5f52601160045260245ffd5b6001600160a01b03858116825284166020820152604081018390526080606082018190525f9061150e90830184611087565b9695505050505050565b5f60208284031215611528575f80fd5b8151610c1e8161103556fea2646970667358221220a49f4e52d75410e1a1ee16a1e7492126dcb173fd83add6f8be93cd482178b6ed64736f6c63430008140033",
  "immutableReferences": {},
  "source": "// Solidity Smart Contract\npragma solidity ^0.8.20;\n\nimport \"@openzeppelin/contracts/token/ERC721/extensions/ERC721URIStorage.sol\";\nimport \"@openzeppelin/contracts/access/Ownable.sol\";\n\ncontract NFTMinter is ERC721URIStorage, Ownable {\n    uint256 public tokenCounter;\n\n    // Store additional metadata\n    mapping(uint256 => string) public tokenTitles;\n\n    constructor() ERC721(\"NFTMinter\", \"NFTM\") Ownable(msg.sender) {\n        tokenCounter = 0;\n    }\n\n    function mintNFT(string memory _tokenURI, string memory _title) public {\n        uint256 newItemId = tokenCounter;\n        _safeMint(msg.sender, newItemId);\n        _setTokenURI(newItemId, _tokenURI);\n        tokenTitles[newItemId] = _title;\n\n        tokenCounter += 1;\n    }\n\n    // fetch token title\n    function getTokenTitle(uint256 tokenId) public view returns (string memory) {\n        return tokenTitles[tokenId];\n    }\n}\n",
  "sourcePath": "C:\\Users\\John PC\\Desktop\\workshop\\kuverse-test\\contracts\\contracts\\MintableNFT.sol",
  "compiler": {
    "name": "solc",
    "version": "0.8.20+commit.a1b79de6.Emscripten.clang"
  },
  "schemaVersion": "3.4.16",
  "updatedAt": "2024-12-20T13:50:39.330Z",
  "devdoc": {
    "errors": {
      "ERC721IncorrectOwner(address,uint256,address)": [
        {
          "details": "Indicates an error related to the ownership over a particular token. Used in transfers.",
          "params": {
            "owner": "Address of the current owner of a token.",
            "sender": "Address whose tokens are being transferred.",
            "tokenId": "Identifier number of a token."
          }
        }
      ],
      "ERC721InsufficientApproval(address,uint256)": [
        {
          "details": "Indicates a failure with the `operator`s approval. Used in transfers.",
          "params": {
            "operator": "Address that may be allowed to operate on tokens without being their owner.",
            "tokenId": "Identifier number of a token."
          }
        }
      ],
      "ERC721InvalidApprover(address)": [
        {
          "details": "Indicates a failure with the `approver` of a token to be approved. Used in approvals.",
          "params": {
            "approver": "Address initiating an approval operation."
          }
        }
      ],
      "ERC721InvalidOperator(address)": [
        {
          "details": "Indicates a failure with the `operator` to be approved. Used in approvals.",
          "params": {
            "operator": "Address that may be allowed to operate on tokens without being their owner."
          }
        }
      ],
      "ERC721InvalidOwner(address)": [
        {
          "details": "Indicates that an address can't be an owner. For example, `address(0)` is a forbidden owner in ERC-20. Used in balance queries.",
          "params": {
            "owner": "Address of the current owner of a token."
          }
        }
      ],
      "ERC721InvalidReceiver(address)": [
        {
          "details": "Indicates a failure with the token `receiver`. Used in transfers.",
          "params": {
            "receiver": "Address to which tokens are being transferred."
          }
        }
      ],
      "ERC721InvalidSender(address)": [
        {
          "details": "Indicates a failure with the token `sender`. Used in transfers.",
          "params": {
            "sender": "Address whose tokens are being transferred."
          }
        }
      ],
      "ERC721NonexistentToken(uint256)": [
        {
          "details": "Indicates a `tokenId` whose `owner` is the zero address.",
          "params": {
            "tokenId": "Identifier number of a token."
          }
        }
      ],
      "OwnableInvalidOwner(address)": [
        {
          "details": "The owner is not a valid owner account. (eg. `address(0)`)"
        }
      ],
      "OwnableUnauthorizedAccount(address)": [
        {
          "details": "The caller account is not authorized to perform an operation."
        }
      ]
    },
    "events": {
      "Approval(address,address,uint256)": {
        "details": "Emitted when `owner` enables `approved` to manage the `tokenId` token."
      },
      "ApprovalForAll(address,address,bool)": {
        "details": "Emitted when `owner` enables or disables (`approved`) `operator` to manage all of its assets."
      },
      "BatchMetadataUpdate(uint256,uint256)": {
        "details": "This event emits when the metadata of a range of tokens is changed. So that the third-party platforms such as NFT market could timely update the images and related attributes of the NFTs."
      },
      "MetadataUpdate(uint256)": {
        "details": "This event emits when the metadata of a token is changed. So that the third-party platforms such as NFT market could timely update the images and related attributes of the NFT."
      },
      "Transfer(address,address,uint256)": {
        "details": "Emitted when `tokenId` token is transferred from `from` to `to`."
      }
    },
    "kind": "dev",
    "methods": {
      "approve(address,uint256)": {
        "details": "See {IERC721-approve}."
      },
      "balanceOf(address)": {
        "details": "See {IERC721-balanceOf}."
      },
      "getApproved(uint256)": {
        "details": "See {IERC721-getApproved}."
      },
      "isApprovedForAll(address,address)": {
        "details": "See {IERC721-isApprovedForAll}."
      },
      "name()": {
        "details": "See {IERC721Metadata-name}."
      },
      "owner()": {
        "details": "Returns the address of the current owner."
      },
      "ownerOf(uint256)": {
        "details": "See {IERC721-ownerOf}."
      },
      "renounceOwnership()": {
        "details": "Leaves the contract without owner. It will not be possible to call `onlyOwner` functions. Can only be called by the current owner. NOTE: Renouncing ownership will leave the contract without an owner, thereby disabling any functionality that is only available to the owner."
      },
      "safeTransferFrom(address,address,uint256)": {
        "details": "See {IERC721-safeTransferFrom}."
      },
      "safeTransferFrom(address,address,uint256,bytes)": {
        "details": "See {IERC721-safeTransferFrom}."
      },
      "setApprovalForAll(address,bool)": {
        "details": "See {IERC721-setApprovalForAll}."
      },
      "supportsInterface(bytes4)": {
        "details": "See {IERC165-supportsInterface}"
      },
      "symbol()": {
        "details": "See {IERC721Metadata-symbol}."
      },
      "tokenURI(uint256)": {
        "details": "See {IERC721Metadata-tokenURI}."
      },
      "transferFrom(address,address,uint256)": {
        "details": "See {IERC721-transferFrom}."
      },
      "transferOwnership(address)": {
        "details": "Transfers ownership of the contract to a new account (`newOwner`). Can only be called by the current owner."
      }
    },
    "version": 1
  },
  "userdoc": {
    "kind": "user",
    "methods": {},
    "version": 1
  }
}