{
  "contractName": "NFTMinter",
  "abi": [
    {
      "inputs": [],
      "stateMutability": "nonpayable",
      "type": "constructor"
    },
    {
      "inputs": [
        {
          "internalType": "address",
          "name": "sender",
          "type": "address"
        },
        {
          "internalType": "uint256",
          "name": "tokenId",
          "type": "uint256"
        },
        {
          "internalType": "address",
          "name": "owner",
          "type": "address"
        }
      ],
      "name": "ERC721IncorrectOwner",
      "type": "error"
    },
    {
      "inputs": [
        {
          "internalType": "address",
          "name": "operator",
          "type": "address"
        },
        {
          "internalType": "uint256",
          "name": "tokenId",
          "type": "uint256"
        }
      ],
      "name": "ERC721InsufficientApproval",
      "type": "error"
    },
    {
      "inputs": [
        {
          "internalType": "address",
          "name": "approver",
          "type": "address"
        }
      ],
      "name": "ERC721InvalidApprover",
      "type": "error"
    },
    {
      "inputs": [
        {
          "internalType": "address",
          "name": "operator",
          "type": "address"
        }
      ],
      "name": "ERC721InvalidOperator",
      "type": "error"
    },
    {
      "inputs": [
        {
          "internalType": "address",
          "name": "owner",
          "type": "address"
        }
      ],
      "name": "ERC721InvalidOwner",
      "type": "error"
    },
    {
      "inputs": [
        {
          "internalType": "address",
          "name": "receiver",
          "type": "address"
        }
      ],
      "name": "ERC721InvalidReceiver",
      "type": "error"
    },
    {
      "inputs": [
        {
          "internalType": "address",
          "name": "sender",
          "type": "address"
        }
      ],
      "name": "ERC721InvalidSender",
      "type": "error"
    },
    {
      "inputs": [
        {
          "internalType": "uint256",
          "name": "tokenId",
          "type": "uint256"
        }
      ],
      "name": "ERC721NonexistentToken",
      "type": "error"
    },
    {
      "inputs": [
        {
          "internalType": "address",
          "name": "owner",
          "type": "address"
        }
      ],
      "name": "OwnableInvalidOwner",
      "type": "error"
    },
    {
      "inputs": [
        {
          "internalType": "address",
          "name": "account",
          "type": "address"
        }
      ],
      "name": "OwnableUnauthorizedAccount",
      "type": "error"
    },
    {
      "anonymous": false,
      "inputs": [
        {
          "indexed": true,
          "internalType": "address",
          "name": "owner",
          "type": "address"
        },
        {
          "indexed": true,
          "internalType": "address",
          "name": "approved",
          "type": "address"
        },
        {
          "indexed": true,
          "internalType": "uint256",
          "name": "tokenId",
          "type": "uint256"
        }
      ],
      "name": "Approval",
      "type": "event"
    },
    {
      "anonymous": false,
      "inputs": [
        {
          "indexed": true,
          "internalType": "address",
          "name": "owner",
          "type": "address"
        },
        {
          "indexed": true,
          "internalType": "address",
          "name": "operator",
          "type": "address"
        },
        {
          "indexed": false,
          "internalType": "bool",
          "name": "approved",
          "type": "bool"
        }
      ],
      "name": "ApprovalForAll",
      "type": "event"
    },
    {
      "anonymous": false,
      "inputs": [
        {
          "indexed": false,
          "internalType": "uint256",
          "name": "_fromTokenId",
          "type": "uint256"
        },
        {
          "indexed": false,
          "internalType": "uint256",
          "name": "_toTokenId",
          "type": "uint256"
        }
      ],
      "name": "BatchMetadataUpdate",
      "type": "event"
    },
    {
      "anonymous": false,
      "inputs": [
        {
          "indexed": false,
          "internalType": "uint256",
          "name": "_tokenId",
          "type": "uint256"
        }
      ],
      "name": "MetadataUpdate",
      "type": "event"
    },
    {
      "anonymous": false,
      "inputs": [
        {
          "indexed": true,
          "internalType": "address",
          "name": "previousOwner",
          "type": "address"
        },
        {
          "indexed": true,
          "internalType": "address",
          "name": "newOwner",
          "type": "address"
        }
      ],
      "name": "OwnershipTransferred",
      "type": "event"
    },
    {
      "anonymous": false,
      "inputs": [
        {
          "indexed": true,
          "internalType": "address",
          "name": "from",
          "type": "address"
        },
        {
          "indexed": true,
          "internalType": "address",
          "name": "to",
          "type": "address"
        },
        {
          "indexed": true,
          "internalType": "uint256",
          "name": "tokenId",
          "type": "uint256"
        }
      ],
      "name": "Transfer",
      "type": "event"
    },
    {
      "inputs": [
        {
          "internalType": "address",
          "name": "to",
          "type": "address"
        },
        {
          "internalType": "uint256",
          "name": "tokenId",
          "type": "uint256"
        }
      ],
      "name": "approve",
      "outputs": [],
      "stateMutability": "nonpayable",
      "type": "function"
    },
    {
      "inputs": [
        {
          "internalType": "address",
          "name": "owner",
          "type": "address"
        }
      ],
      "name": "balanceOf",
      "outputs": [
        {
          "internalType": "uint256",
          "name": "",
          "type": "uint256"
        }
      ],
      "stateMutability": "view",
      "type": "function"
    },
    {
      "inputs": [
        {
          "internalType": "uint256",
          "name": "tokenId",
          "type": "uint256"
        }
      ],
      "name": "getApproved",
      "outputs": [
        {
          "internalType": "address",
          "name": "",
          "type": "address"
        }
      ],
      "stateMutability": "view",
      "type": "function"
    },
    {
      "inputs": [
        {
          "internalType": "address",
          "name": "owner",
          "type": "address"
        },
        {
          "internalType": "address",
          "name": "operator",
          "type": "address"
        }
      ],
      "name": "isApprovedForAll",
      "outputs": [
        {
          "internalType": "bool",
          "name": "",
          "type": "bool"
        }
      ],
      "stateMutability": "view",
      "type": "function"
    },
    {
      "inputs": [],
      "name": "name",
      "outputs": [
        {
          "internalType": "string",
          "name": "",
          "type": "string"
        }
      ],
      "stateMutability": "view",
      "type": "function"
    },
    {
      "inputs": [],
      "name": "owner",
      "outputs": [
        {
          "internalType": "address",
          "name": "",
          "type": "address"
        }
      ],
      "stateMutability": "view",
      "type": "function"
    },
    {
      "inputs": [
        {
          "internalType": "uint256",
          "name": "tokenId",
          "type": "uint256"
        }
      ],
      "name": "ownerOf",
      "outputs": [
        {
          "internalType": "address",
          "name": "",
          "type": "address"
        }
      ],
      "stateMutability": "view",
      "type": "function"
    },
    {
      "inputs": [],
      "name": "renounceOwnership",
      "outputs": [],
      "stateMutability": "nonpayable",
      "type": "function"
    },
    {
      "inputs": [
        {
          "internalType": "address",
          "name": "from",
          "type": "address"
        },
        {
          "internalType": "address",
          "name": "to",
          "type": "address"
        },
        {
          "internalType": "uint256",
          "name": "tokenId",
          "type": "uint256"
        }
      ],
      "name": "safeTransferFrom",
      "outputs": [],
      "stateMutability": "nonpayable",
      "type": "function"
    },
    {
      "inputs": [
        {
          "internalType": "address",
          "name": "from",
          "type": "address"
        },
        {
          "internalType": "address",
          "name": "to",
          "type": "address"
        },
        {
          "internalType": "uint256",
          "name": "tokenId",
          "type": "uint256"
        },
        {
          "internalType": "bytes",
          "name": "data",
          "type": "bytes"
        }
      ],
      "name": "safeTransferFrom",
      "outputs": [],
      "stateMutability": "nonpayable",
      "type": "function"
    },
    {
      "inputs": [
        {
          "internalType": "address",
          "name": "operator",
          "type": "address"
        },
        {
          "internalType": "bool",
          "name": "approved",
          "type": "bool"
        }
      ],
      "name": "setApprovalForAll",
      "outputs": [],
      "stateMutability": "nonpayable",
      "type": "function"
    },
    {
      "inputs": [
        {
          "internalType": "bytes4",
          "name": "interfaceId",
          "type": "bytes4"
        }
      ],
      "name": "supportsInterface",
      "outputs": [
        {
          "internalType": "bool",
          "name": "",
          "type": "bool"
        }
      ],
      "stateMutability": "view",
      "type": "function"
    },
    {
      "inputs": [],
      "name": "symbol",
      "outputs": [
        {
          "internalType": "string",
          "name": "",
          "type": "string"
        }
      ],
      "stateMutability": "view",
      "type": "function"
    },
    {
      "inputs": [],
      "name": "tokenCounter",
      "outputs": [
        {
          "internalType": "uint256",
          "name": "",
          "type": "uint256"
        }
      ],
      "stateMutability": "view",
      "type": "function"
    },
    {
      "inputs": [
        {
          "internalType": "uint256",
          "name": "tokenId",
          "type": "uint256"
        }
      ],
      "name": "tokenURI",
      "outputs": [
        {
          "internalType": "string",
          "name": "",
          "type": "string"
        }
      ],
      "stateMutability": "view",
      "type": "function"
    },
    {
      "inputs": [
        {
          "internalType": "address",
          "name": "from",
          "type": "address"
        },
        {
          "internalType": "address",
          "name": "to",
          "type": "address"
        },
        {
          "internalType": "uint256",
          "name": "tokenId",
          "type": "uint256"
        }
      ],
      "name": "transferFrom",
      "outputs": [],
      "stateMutability": "nonpayable",
      "type": "function"
    },
    {
      "inputs": [
        {
          "internalType": "address",
          "name": "newOwner",
          "type": "address"
        }
      ],
      "name": "transferOwnership",
      "outputs": [],
      "stateMutability": "nonpayable",
      "type": "function"
    },
    {
      "inputs": [
        {
          "internalType": "string",
          "name": "_tokenURI",
          "type": "string"
        }
      ],
      "name": "mintNFT",
      "outputs": [],
      "stateMutability": "nonpayable",
      "type": "function"
    }
  ],
  "bytecode": "0x608060405234801562000010575f80fd5b50336040518060400160405280600981526020017f4e46544d696e74657200000000000000000000000000000000000000000000008152506040518060400160405280600481526020017f4e46544d00000000000000000000000000000000000000000000000000000000815250815f90816200008e91906200045c565b508060019081620000a091906200045c565b5050505f73ffffffffffffffffffffffffffffffffffffffff168173ffffffffffffffffffffffffffffffffffffffff160362000116575f6040517f1e4fbdf70000000000000000000000000000000000000000000000000000000081526004016200010d919062000583565b60405180910390fd5b62000127816200013560201b60201c565b505f6008819055506200059e565b5f60075f9054906101000a900473ffffffffffffffffffffffffffffffffffffffff1690508160075f6101000a81548173ffffffffffffffffffffffffffffffffffffffff021916908373ffffffffffffffffffffffffffffffffffffffff1602179055508173ffffffffffffffffffffffffffffffffffffffff168173ffffffffffffffffffffffffffffffffffffffff167f8be0079c531659141344cd1fd0a4f28419497f9722a3daafe3b4186f6b6457e060405160405180910390a35050565b5f81519050919050565b7f4e487b71000000000000000000000000000000000000000000000000000000005f52604160045260245ffd5b7f4e487b71000000000000000000000000000000000000000000000000000000005f52602260045260245ffd5b5f60028204905060018216806200027457607f821691505b6020821081036200028a57620002896200022f565b5b50919050565b5f819050815f5260205f209050919050565b5f6020601f8301049050919050565b5f82821b905092915050565b5f60088302620002ee7fffffffffffffffffffffffffffffffffffffffffffffffffffffffffffffffff82620002b1565b620002fa8683620002b1565b95508019841693508086168417925050509392505050565b5f819050919050565b5f819050919050565b5f620003446200033e620003388462000312565b6200031b565b62000312565b9050919050565b5f819050919050565b6200035f8362000324565b620003776200036e826200034b565b848454620002bd565b825550505050565b5f90565b6200038d6200037f565b6200039a81848462000354565b505050565b5b81811015620003c157620003b55f8262000383565b600181019050620003a0565b5050565b601f8211156200041057620003da8162000290565b620003e584620002a2565b81016020851015620003f5578190505b6200040d6200040485620002a2565b8301826200039f565b50505b505050565b5f82821c905092915050565b5f620004325f198460080262000415565b1980831691505092915050565b5f6200044c838362000421565b9150826002028217905092915050565b6200046782620001f8565b67ffffffffffffffff81111562000483576200048262000202565b5b6200048f82546200025c565b6200049c828285620003c5565b5f60209050601f831160018114620004d2575f8415620004bd578287015190505b620004c985826200043f565b86555062000538565b601f198416620004e28662000290565b5f5b828110156200050b57848901518255600182019150602085019450602081019050620004e4565b868310156200052b578489015162000527601f89168262000421565b8355505b6001600288020188555050505b505050505050565b5f73ffffffffffffffffffffffffffffffffffffffff82169050919050565b5f6200056b8262000540565b9050919050565b6200057d816200055f565b82525050565b5f602082019050620005985f83018462000572565b92915050565b61259480620005ac5f395ff3fe608060405234801561000f575f80fd5b5060043610610114575f3560e01c80638da5cb5b116100a0578063c87b56dd1161006f578063c87b56dd146102c8578063d082e381146102f8578063e985e9c514610316578063f2fde38b14610346578063fb37e8831461036257610114565b80638da5cb5b1461025457806395d89b4114610272578063a22cb46514610290578063b88d4fde146102ac57610114565b806323b872dd116100e757806323b872dd146101b257806342842e0e146101ce5780636352211e146101ea57806370a082311461021a578063715018a61461024a57610114565b806301ffc9a71461011857806306fdde0314610148578063081812fc14610166578063095ea7b314610196575b5f80fd5b610132600480360381019061012d9190611a74565b61037e565b60405161013f9190611ab9565b60405180910390f35b6101506103de565b60405161015d9190611b5c565b60405180910390f35b610180600480360381019061017b9190611baf565b61046d565b60405161018d9190611c19565b60405180910390f35b6101b060048036038101906101ab9190611c5c565b610488565b005b6101cc60048036038101906101c79190611c9a565b61049e565b005b6101e860048036038101906101e39190611c9a565b61059d565b005b61020460048036038101906101ff9190611baf565b6105bc565b6040516102119190611c19565b60405180910390f35b610234600480360381019061022f9190611cea565b6105cd565b6040516102419190611d24565b60405180910390f35b610252610683565b005b61025c610696565b6040516102699190611c19565b60405180910390f35b61027a6106be565b6040516102879190611b5c565b60405180910390f35b6102aa60048036038101906102a59190611d67565b61074e565b005b6102c660048036038101906102c19190611ed1565b610764565b005b6102e260048036038101906102dd9190611baf565b610789565b6040516102ef9190611b5c565b60405180910390f35b610300610894565b60405161030d9190611d24565b60405180910390f35b610330600480360381019061032b9190611f51565b61089a565b60405161033d9190611ab9565b60405180910390f35b610360600480360381019061035b9190611cea565b610928565b005b61037c6004803603810190610377919061202d565b6109ac565b005b5f634906490660e01b7bffffffffffffffffffffffffffffffffffffffffffffffffffffffff1916827bffffffffffffffffffffffffffffffffffffffffffffffffffffffff191614806103d757506103d6826109e3565b5b9050919050565b60605f80546103ec906120a1565b80601f0160208091040260200160405190810160405280929190818152602001828054610418906120a1565b80156104635780601f1061043a57610100808354040283529160200191610463565b820191905f5260205f20905b81548152906001019060200180831161044657829003601f168201915b5050505050905090565b5f61047782610ac4565b5061048182610b4a565b9050919050565b61049a8282610495610b83565b610b8a565b5050565b5f73ffffffffffffffffffffffffffffffffffffffff168273ffffffffffffffffffffffffffffffffffffffff160361050e575f6040517f64a0ae920000000000000000000000000000000000000000000000000000000081526004016105059190611c19565b60405180910390fd5b5f610521838361051c610b83565b610b9c565b90508373ffffffffffffffffffffffffffffffffffffffff168173ffffffffffffffffffffffffffffffffffffffff1614610597578382826040517f64283d7b00000000000000000000000000000000000000000000000000000000815260040161058e939291906120d1565b60405180910390fd5b50505050565b6105b783838360405180602001604052805f815250610764565b505050565b5f6105c682610ac4565b9050919050565b5f8073ffffffffffffffffffffffffffffffffffffffff168273ffffffffffffffffffffffffffffffffffffffff160361063e575f6040517f89c62b640000000000000000000000000000000000000000000000000000000081526004016106359190611c19565b60405180910390fd5b60035f8373ffffffffffffffffffffffffffffffffffffffff1673ffffffffffffffffffffffffffffffffffffffff1681526020019081526020015f20549050919050565b61068b610da7565b6106945f610e2e565b565b5f60075f9054906101000a900473ffffffffffffffffffffffffffffffffffffffff16905090565b6060600180546106cd906120a1565b80601f01602080910402602001604051908101604052809291908181526020018280546106f9906120a1565b80156107445780601f1061071b57610100808354040283529160200191610744565b820191905f5260205f20905b81548152906001019060200180831161072757829003601f168201915b5050505050905090565b610760610759610b83565b8383610ef1565b5050565b61076f84848461049e565b61078361077a610b83565b8585858561105a565b50505050565b606061079482610ac4565b505f60065f8481526020019081526020015f2080546107b2906120a1565b80601f01602080910402602001604051908101604052809291908181526020018280546107de906120a1565b80156108295780601f1061080057610100808354040283529160200191610829565b820191905f5260205f20905b81548152906001019060200180831161080c57829003601f168201915b505050505090505f610839611206565b90505f81510361084d57819250505061088f565b5f82511115610881578082604051602001610869929190612140565b6040516020818303038152906040529250505061088f565b61088a8461121c565b925050505b919050565b60085481565b5f60055f8473ffffffffffffffffffffffffffffffffffffffff1673ffffffffffffffffffffffffffffffffffffffff1681526020019081526020015f205f8373ffffffffffffffffffffffffffffffffffffffff1673ffffffffffffffffffffffffffffffffffffffff1681526020019081526020015f205f9054906101000a900460ff16905092915050565b610930610da7565b5f73ffffffffffffffffffffffffffffffffffffffff168173ffffffffffffffffffffffffffffffffffffffff16036109a0575f6040517f1e4fbdf70000000000000000000000000000000000000000000000000000000081526004016109979190611c19565b60405180910390fd5b6109a981610e2e565b50565b5f60085490506109bc3382611282565b6109c6818361129f565b600160085f8282546109d89190612190565b925050819055505050565b5f7f80ac58cd000000000000000000000000000000000000000000000000000000007bffffffffffffffffffffffffffffffffffffffffffffffffffffffff1916827bffffffffffffffffffffffffffffffffffffffffffffffffffffffff19161480610aad57507f5b5e139f000000000000000000000000000000000000000000000000000000007bffffffffffffffffffffffffffffffffffffffffffffffffffffffff1916827bffffffffffffffffffffffffffffffffffffffffffffffffffffffff1916145b80610abd5750610abc826112f9565b5b9050919050565b5f80610acf83611362565b90505f73ffffffffffffffffffffffffffffffffffffffff168173ffffffffffffffffffffffffffffffffffffffff1603610b4157826040517f7e273289000000000000000000000000000000000000000000000000000000008152600401610b389190611d24565b60405180910390fd5b80915050919050565b5f60045f8381526020019081526020015f205f9054906101000a900473ffffffffffffffffffffffffffffffffffffffff169050919050565b5f33905090565b610b97838383600161139b565b505050565b5f80610ba784611362565b90505f73ffffffffffffffffffffffffffffffffffffffff168373ffffffffffffffffffffffffffffffffffffffff1614610be857610be781848661155a565b5b5f73ffffffffffffffffffffffffffffffffffffffff168173ffffffffffffffffffffffffffffffffffffffff1614610c7357610c275f855f8061139b565b600160035f8373ffffffffffffffffffffffffffffffffffffffff1673ffffffffffffffffffffffffffffffffffffffff1681526020019081526020015f205f82825403925050819055505b5f73ffffffffffffffffffffffffffffffffffffffff168573ffffffffffffffffffffffffffffffffffffffff1614610cf257600160035f8773ffffffffffffffffffffffffffffffffffffffff1673ffffffffffffffffffffffffffffffffffffffff1681526020019081526020015f205f82825401925050819055505b8460025f8681526020019081526020015f205f6101000a81548173ffffffffffffffffffffffffffffffffffffffff021916908373ffffffffffffffffffffffffffffffffffffffff160217905550838573ffffffffffffffffffffffffffffffffffffffff168273ffffffffffffffffffffffffffffffffffffffff167fddf252ad1be2c89b69c2b068fc378daa952ba7f163c4a11628f55a4df523b3ef60405160405180910390a4809150509392505050565b610daf610b83565b73ffffffffffffffffffffffffffffffffffffffff16610dcd610696565b73ffffffffffffffffffffffffffffffffffffffff1614610e2c57610df0610b83565b6040517f118cdaa7000000000000000000000000000000000000000000000000000000008152600401610e239190611c19565b60405180910390fd5b565b5f60075f9054906101000a900473ffffffffffffffffffffffffffffffffffffffff1690508160075f6101000a81548173ffffffffffffffffffffffffffffffffffffffff021916908373ffffffffffffffffffffffffffffffffffffffff1602179055508173ffffffffffffffffffffffffffffffffffffffff168173ffffffffffffffffffffffffffffffffffffffff167f8be0079c531659141344cd1fd0a4f28419497f9722a3daafe3b4186f6b6457e060405160405180910390a35050565b5f73ffffffffffffffffffffffffffffffffffffffff168273ffffffffffffffffffffffffffffffffffffffff1603610f6157816040517f5b08ba18000000000000000000000000000000000000000000000000000000008152600401610f589190611c19565b60405180910390fd5b8060055f8573ffffffffffffffffffffffffffffffffffffffff1673ffffffffffffffffffffffffffffffffffffffff1681526020019081526020015f205f8473ffffffffffffffffffffffffffffffffffffffff1673ffffffffffffffffffffffffffffffffffffffff1681526020019081526020015f205f6101000a81548160ff0219169083151502179055508173ffffffffffffffffffffffffffffffffffffffff168373ffffffffffffffffffffffffffffffffffffffff167f17307eab39ab6107e8899845ad3d59bd9653f200f220920489ca2b5937696c318360405161104d9190611ab9565b60405180910390a3505050565b5f8373ffffffffffffffffffffffffffffffffffffffff163b11156111ff578273ffffffffffffffffffffffffffffffffffffffff1663150b7a02868685856040518563ffffffff1660e01b81526004016110b89493929190612215565b6020604051808303815f875af19250505080156110f357506040513d601f19601f820116820180604052508101906110f09190612273565b60015b611174573d805f8114611121576040519150601f19603f3d011682016040523d82523d5f602084013e611126565b606091505b505f81510361116c57836040517f64a0ae920000000000000000000000000000000000000000000000000000000081526004016111639190611c19565b60405180910390fd5b805181602001fd5b63150b7a0260e01b7bffffffffffffffffffffffffffffffffffffffffffffffffffffffff1916817bffffffffffffffffffffffffffffffffffffffffffffffffffffffff1916146111fd57836040517f64a0ae920000000000000000000000000000000000000000000000000000000081526004016111f49190611c19565b60405180910390fd5b505b5050505050565b606060405180602001604052805f815250905090565b606061122782610ac4565b505f611231611206565b90505f81511161124f5760405180602001604052805f81525061127a565b806112598461161d565b60405160200161126a929190612140565b6040516020818303038152906040525b915050919050565b61129b828260405180602001604052805f8152506116e7565b5050565b8060065f8481526020019081526020015f2090816112bd919061243b565b507ff8e1a15aba9398e019f0b49df1a4fde98ee17ae345cb5f6b5e2c27f5033e8ce7826040516112ed9190611d24565b60405180910390a15050565b5f7f01ffc9a7000000000000000000000000000000000000000000000000000000007bffffffffffffffffffffffffffffffffffffffffffffffffffffffff1916827bffffffffffffffffffffffffffffffffffffffffffffffffffffffff1916149050919050565b5f60025f8381526020019081526020015f205f9054906101000a900473ffffffffffffffffffffffffffffffffffffffff169050919050565b80806113d357505f73ffffffffffffffffffffffffffffffffffffffff168273ffffffffffffffffffffffffffffffffffffffff1614155b15611505575f6113e284610ac4565b90505f73ffffffffffffffffffffffffffffffffffffffff168373ffffffffffffffffffffffffffffffffffffffff161415801561144c57508273ffffffffffffffffffffffffffffffffffffffff168173ffffffffffffffffffffffffffffffffffffffff1614155b801561145f575061145d818461089a565b155b156114a157826040517fa9fbf51f0000000000000000000000000000000000000000000000000000000081526004016114989190611c19565b60405180910390fd5b811561150357838573ffffffffffffffffffffffffffffffffffffffff168273ffffffffffffffffffffffffffffffffffffffff167f8c5be1e5ebec7d5bd14f71427d1e84f3dd0314c0f7b2291e5b200ac8c7c3b92560405160405180910390a45b505b8360045f8581526020019081526020015f205f6101000a81548173ffffffffffffffffffffffffffffffffffffffff021916908373ffffffffffffffffffffffffffffffffffffffff16021790555050505050565b61156583838361170a565b611618575f73ffffffffffffffffffffffffffffffffffffffff168373ffffffffffffffffffffffffffffffffffffffff16036115d957806040517f7e2732890000000000000000000000000000000000000000000000000000000081526004016115d09190611d24565b60405180910390fd5b81816040517f177e802f00000000000000000000000000000000000000000000000000000000815260040161160f92919061250a565b60405180910390fd5b505050565b60605f600161162b846117ca565b0190505f8167ffffffffffffffff81111561164957611648611dad565b5b6040519080825280601f01601f19166020018201604052801561167b5781602001600182028036833780820191505090505b5090505f82602001820190505b6001156116dc578080600190039150507f3031323334353637383961626364656600000000000000000000000000000000600a86061a8153600a85816116d1576116d0612531565b5b0494505f8503611688575b819350505050919050565b6116f1838361191b565b6117056116fc610b83565b5f85858561105a565b505050565b5f8073ffffffffffffffffffffffffffffffffffffffff168373ffffffffffffffffffffffffffffffffffffffff16141580156117c157508273ffffffffffffffffffffffffffffffffffffffff168473ffffffffffffffffffffffffffffffffffffffff1614806117825750611781848461089a565b5b806117c057508273ffffffffffffffffffffffffffffffffffffffff166117a883610b4a565b73ffffffffffffffffffffffffffffffffffffffff16145b5b90509392505050565b5f805f90507a184f03e93ff9f4daa797ed6e38ed64bf6a1f0100000000000000008310611826577a184f03e93ff9f4daa797ed6e38ed64bf6a1f010000000000000000838161181c5761181b612531565b5b0492506040810190505b6d04ee2d6d415b85acef81000000008310611863576d04ee2d6d415b85acef8100000000838161185957611858612531565b5b0492506020810190505b662386f26fc10000831061189257662386f26fc10000838161188857611887612531565b5b0492506010810190505b6305f5e10083106118bb576305f5e10083816118b1576118b0612531565b5b0492506008810190505b61271083106118e05761271083816118d6576118d5612531565b5b0492506004810190505b6064831061190357606483816118f9576118f8612531565b5b0492506002810190505b600a8310611912576001810190505b80915050919050565b5f73ffffffffffffffffffffffffffffffffffffffff168273ffffffffffffffffffffffffffffffffffffffff160361198b575f6040517f64a0ae920000000000000000000000000000000000000000000000000000000081526004016119829190611c19565b60405180910390fd5b5f61199783835f610b9c565b90505f73ffffffffffffffffffffffffffffffffffffffff168173ffffffffffffffffffffffffffffffffffffffff1614611a09575f6040517f73c6ac6e000000000000000000000000000000000000000000000000000000008152600401611a009190611c19565b60405180910390fd5b505050565b5f604051905090565b5f80fd5b5f80fd5b5f7fffffffff0000000000000000000000000000000000000000000000000000000082169050919050565b611a5381611a1f565b8114611a5d575f80fd5b50565b5f81359050611a6e81611a4a565b92915050565b5f60208284031215611a8957611a88611a17565b5b5f611a9684828501611a60565b91505092915050565b5f8115159050919050565b611ab381611a9f565b82525050565b5f602082019050611acc5f830184611aaa565b92915050565b5f81519050919050565b5f82825260208201905092915050565b5f5b83811015611b09578082015181840152602081019050611aee565b5f8484015250505050565b5f601f19601f8301169050919050565b5f611b2e82611ad2565b611b388185611adc565b9350611b48818560208601611aec565b611b5181611b14565b840191505092915050565b5f6020820190508181035f830152611b748184611b24565b905092915050565b5f819050919050565b611b8e81611b7c565b8114611b98575f80fd5b50565b5f81359050611ba981611b85565b92915050565b5f60208284031215611bc457611bc3611a17565b5b5f611bd184828501611b9b565b91505092915050565b5f73ffffffffffffffffffffffffffffffffffffffff82169050919050565b5f611c0382611bda565b9050919050565b611c1381611bf9565b82525050565b5f602082019050611c2c5f830184611c0a565b92915050565b611c3b81611bf9565b8114611c45575f80fd5b50565b5f81359050611c5681611c32565b92915050565b5f8060408385031215611c7257611c71611a17565b5b5f611c7f85828601611c48565b9250506020611c9085828601611b9b565b9150509250929050565b5f805f60608486031215611cb157611cb0611a17565b5b5f611cbe86828701611c48565b9350506020611ccf86828701611c48565b9250506040611ce086828701611b9b565b9150509250925092565b5f60208284031215611cff57611cfe611a17565b5b5f611d0c84828501611c48565b91505092915050565b611d1e81611b7c565b82525050565b5f602082019050611d375f830184611d15565b92915050565b611d4681611a9f565b8114611d50575f80fd5b50565b5f81359050611d6181611d3d565b92915050565b5f8060408385031215611d7d57611d7c611a17565b5b5f611d8a85828601611c48565b9250506020611d9b85828601611d53565b9150509250929050565b5f80fd5b5f80fd5b7f4e487b71000000000000000000000000000000000000000000000000000000005f52604160045260245ffd5b611de382611b14565b810181811067ffffffffffffffff82111715611e0257611e01611dad565b5b80604052505050565b5f611e14611a0e565b9050611e208282611dda565b919050565b5f67ffffffffffffffff821115611e3f57611e3e611dad565b5b611e4882611b14565b9050602081019050919050565b828183375f83830152505050565b5f611e75611e7084611e25565b611e0b565b905082815260208101848484011115611e9157611e90611da9565b5b611e9c848285611e55565b509392505050565b5f82601f830112611eb857611eb7611da5565b5b8135611ec8848260208601611e63565b91505092915050565b5f805f8060808587031215611ee957611ee8611a17565b5b5f611ef687828801611c48565b9450506020611f0787828801611c48565b9350506040611f1887828801611b9b565b925050606085013567ffffffffffffffff811115611f3957611f38611a1b565b5b611f4587828801611ea4565b91505092959194509250565b5f8060408385031215611f6757611f66611a17565b5b5f611f7485828601611c48565b9250506020611f8585828601611c48565b9150509250929050565b5f67ffffffffffffffff821115611fa957611fa8611dad565b5b611fb282611b14565b9050602081019050919050565b5f611fd1611fcc84611f8f565b611e0b565b905082815260208101848484011115611fed57611fec611da9565b5b611ff8848285611e55565b509392505050565b5f82601f83011261201457612013611da5565b5b8135612024848260208601611fbf565b91505092915050565b5f6020828403121561204257612041611a17565b5b5f82013567ffffffffffffffff81111561205f5761205e611a1b565b5b61206b84828501612000565b91505092915050565b7f4e487b71000000000000000000000000000000000000000000000000000000005f52602260045260245ffd5b5f60028204905060018216806120b857607f821691505b6020821081036120cb576120ca612074565b5b50919050565b5f6060820190506120e45f830186611c0a565b6120f16020830185611d15565b6120fe6040830184611c0a565b949350505050565b5f81905092915050565b5f61211a82611ad2565b6121248185612106565b9350612134818560208601611aec565b80840191505092915050565b5f61214b8285612110565b91506121578284612110565b91508190509392505050565b7f4e487b71000000000000000000000000000000000000000000000000000000005f52601160045260245ffd5b5f61219a82611b7c565b91506121a583611b7c565b92508282019050808211156121bd576121bc612163565b5b92915050565b5f81519050919050565b5f82825260208201905092915050565b5f6121e7826121c3565b6121f181856121cd565b9350612201818560208601611aec565b61220a81611b14565b840191505092915050565b5f6080820190506122285f830187611c0a565b6122356020830186611c0a565b6122426040830185611d15565b818103606083015261225481846121dd565b905095945050505050565b5f8151905061226d81611a4a565b92915050565b5f6020828403121561228857612287611a17565b5b5f6122958482850161225f565b91505092915050565b5f819050815f5260205f209050919050565b5f6020601f8301049050919050565b5f82821b905092915050565b5f600883026122fa7fffffffffffffffffffffffffffffffffffffffffffffffffffffffffffffffff826122bf565b61230486836122bf565b95508019841693508086168417925050509392505050565b5f819050919050565b5f61233f61233a61233584611b7c565b61231c565b611b7c565b9050919050565b5f819050919050565b61235883612325565b61236c61236482612346565b8484546122cb565b825550505050565b5f90565b612380612374565b61238b81848461234f565b505050565b5b818110156123ae576123a35f82612378565b600181019050612391565b5050565b601f8211156123f3576123c48161229e565b6123cd846122b0565b810160208510156123dc578190505b6123f06123e8856122b0565b830182612390565b50505b505050565b5f82821c905092915050565b5f6124135f19846008026123f8565b1980831691505092915050565b5f61242b8383612404565b9150826002028217905092915050565b61244482611ad2565b67ffffffffffffffff81111561245d5761245c611dad565b5b61246782546120a1565b6124728282856123b2565b5f60209050601f8311600181146124a3575f8415612491578287015190505b61249b8582612420565b865550612502565b601f1984166124b18661229e565b5f5b828110156124d8578489015182556001820191506020850194506020810190506124b3565b868310156124f557848901516124f1601f891682612404565b8355505b6001600288020188555050505b505050505050565b5f60408201905061251d5f830185611c0a565b61252a6020830184611d15565b9392505050565b7f4e487b71000000000000000000000000000000000000000000000000000000005f52601260045260245ffdfea2646970667358221220e5bd64ead16228728ac2b4a4c69e703a422579070111f95e0268e5dc3002e4ca64736f6c63430008140033",
  "immutableReferences": {},
  "source": "// Solidity Smart Contract\npragma solidity ^0.8.20;\n\nimport \"@openzeppelin/contracts/token/ERC721/extensions/ERC721URIStorage.sol\";\nimport \"@openzeppelin/contracts/access/Ownable.sol\";\n\ncontract NFTMinter is ERC721URIStorage, Ownable {\n    uint256 public tokenCounter;\n\n    constructor() ERC721(\"NFTMinter\", \"NFTM\") Ownable(msg.sender) {\n        tokenCounter = 0;\n    }\n\n    function mintNFT(string memory _tokenURI) public {\n        uint256 newItemId = tokenCounter;\n        _safeMint(msg.sender, newItemId);\n        _setTokenURI(newItemId, _tokenURI);\n        tokenCounter += 1;\n    }\n}\n",
  "sourcePath": "C:\\Users\\John PC\\Desktop\\workshop\\kuverse-test\\contracts\\contracts\\MintableNFT.sol",
  "compiler": {
    "name": "solc",
    "version": "0.8.20+commit.a1b79de6.Emscripten.clang"
  },
  "schemaVersion": "3.4.16",
  "updatedAt": "2024-12-20T05:53:58.154Z",
  "devdoc": {
    "errors": {
      "ERC721IncorrectOwner(address,uint256,address)": [
        {
          "details": "Indicates an error related to the ownership over a particular token. Used in transfers.",
          "params": {
            "owner": "Address of the current owner of a token.",
            "sender": "Address whose tokens are being transferred.",
            "tokenId": "Identifier number of a token."
          }
        }
      ],
      "ERC721InsufficientApproval(address,uint256)": [
        {
          "details": "Indicates a failure with the `operator`s approval. Used in transfers.",
          "params": {
            "operator": "Address that may be allowed to operate on tokens without being their owner.",
            "tokenId": "Identifier number of a token."
          }
        }
      ],
      "ERC721InvalidApprover(address)": [
        {
          "details": "Indicates a failure with the `approver` of a token to be approved. Used in approvals.",
          "params": {
            "approver": "Address initiating an approval operation."
          }
        }
      ],
      "ERC721InvalidOperator(address)": [
        {
          "details": "Indicates a failure with the `operator` to be approved. Used in approvals.",
          "params": {
            "operator": "Address that may be allowed to operate on tokens without being their owner."
          }
        }
      ],
      "ERC721InvalidOwner(address)": [
        {
          "details": "Indicates that an address can't be an owner. For example, `address(0)` is a forbidden owner in ERC-20. Used in balance queries.",
          "params": {
            "owner": "Address of the current owner of a token."
          }
        }
      ],
      "ERC721InvalidReceiver(address)": [
        {
          "details": "Indicates a failure with the token `receiver`. Used in transfers.",
          "params": {
            "receiver": "Address to which tokens are being transferred."
          }
        }
      ],
      "ERC721InvalidSender(address)": [
        {
          "details": "Indicates a failure with the token `sender`. Used in transfers.",
          "params": {
            "sender": "Address whose tokens are being transferred."
          }
        }
      ],
      "ERC721NonexistentToken(uint256)": [
        {
          "details": "Indicates a `tokenId` whose `owner` is the zero address.",
          "params": {
            "tokenId": "Identifier number of a token."
          }
        }
      ],
      "OwnableInvalidOwner(address)": [
        {
          "details": "The owner is not a valid owner account. (eg. `address(0)`)"
        }
      ],
      "OwnableUnauthorizedAccount(address)": [
        {
          "details": "The caller account is not authorized to perform an operation."
        }
      ]
    },
    "events": {
      "Approval(address,address,uint256)": {
        "details": "Emitted when `owner` enables `approved` to manage the `tokenId` token."
      },
      "ApprovalForAll(address,address,bool)": {
        "details": "Emitted when `owner` enables or disables (`approved`) `operator` to manage all of its assets."
      },
      "BatchMetadataUpdate(uint256,uint256)": {
        "details": "This event emits when the metadata of a range of tokens is changed. So that the third-party platforms such as NFT market could timely update the images and related attributes of the NFTs."
      },
      "MetadataUpdate(uint256)": {
        "details": "This event emits when the metadata of a token is changed. So that the third-party platforms such as NFT market could timely update the images and related attributes of the NFT."
      },
      "Transfer(address,address,uint256)": {
        "details": "Emitted when `tokenId` token is transferred from `from` to `to`."
      }
    },
    "kind": "dev",
    "methods": {
      "approve(address,uint256)": {
        "details": "See {IERC721-approve}."
      },
      "balanceOf(address)": {
        "details": "See {IERC721-balanceOf}."
      },
      "getApproved(uint256)": {
        "details": "See {IERC721-getApproved}."
      },
      "isApprovedForAll(address,address)": {
        "details": "See {IERC721-isApprovedForAll}."
      },
      "name()": {
        "details": "See {IERC721Metadata-name}."
      },
      "owner()": {
        "details": "Returns the address of the current owner."
      },
      "ownerOf(uint256)": {
        "details": "See {IERC721-ownerOf}."
      },
      "renounceOwnership()": {
        "details": "Leaves the contract without owner. It will not be possible to call `onlyOwner` functions. Can only be called by the current owner. NOTE: Renouncing ownership will leave the contract without an owner, thereby disabling any functionality that is only available to the owner."
      },
      "safeTransferFrom(address,address,uint256)": {
        "details": "See {IERC721-safeTransferFrom}."
      },
      "safeTransferFrom(address,address,uint256,bytes)": {
        "details": "See {IERC721-safeTransferFrom}."
      },
      "setApprovalForAll(address,bool)": {
        "details": "See {IERC721-setApprovalForAll}."
      },
      "supportsInterface(bytes4)": {
        "details": "See {IERC165-supportsInterface}"
      },
      "symbol()": {
        "details": "See {IERC721Metadata-symbol}."
      },
      "tokenURI(uint256)": {
        "details": "See {IERC721Metadata-tokenURI}."
      },
      "transferFrom(address,address,uint256)": {
        "details": "See {IERC721-transferFrom}."
      },
      "transferOwnership(address)": {
        "details": "Transfers ownership of the contract to a new account (`newOwner`). Can only be called by the current owner."
      }
    },
    "version": 1
  },
  "userdoc": {
    "kind": "user",
    "methods": {},
    "version": 1
  }
}